:100000000C9434000C943E000C943E000C943E0082
:100010000C943E000C943E000C943E000C943E0068
:100020000C943E000C943E000C943E000C943E0058
:100030000C943E000C943E000C943E000C943E0048
:100040000C943E000C943E000C943E000C943E0038
:100050000C943E000C943E000C943E000C943E0028
:100060000C943E000C943E0011241FBECFEFD8E04C
:10007000DEBFCDBF0E9440000C9450000C940000E5
:10008000569A17BC83E884BD82E085BD87B58B5F37
:1000900087BD8FE39CE90197F1F700C00000F6CF20
:0400A000F894FFCF02
:00000001FF
