:100000000C9434000C943E000C943E000C943E0082
:100010000C943E000C943E000C943E000C943E0068
:100020000C943E000C943E000C943E000C943E0058
:100030000C943E000C943E000C943E000C943E0048
:100040000C943E000C943E000C943E000C943E0038
:100050000C943E000C943E000C943E000C943E0028
:100060000C943E000C943E0011241FBECFEFD8E04C
:10007000DEBFCDBF0E9440000C9457000C940000DE
:10008000259A3D9890E020E286B1882329F09817C0
:1000900019F095B1922795B93FE748E391E03150C7
:1000A00040409040E1F700C00000982FEDCFF89459
:0200B000FFCF80
:00000001FF
