:100000000C9434000C943E000C943E000C943E0082
:100010000C943E000C943E000C943E000C943E0068
:100020000C943E000C943E000C943E000C943E0058
:100030000C943E000C943E000C943E000C943E0048
:100040000C943E000C943E000C943E000C943E0038
:100050000C943E000C943E000C943E000C943E0028
:100060000C943E000C943E0011241FBECFEFD8E04C
:10007000DEBFCDBF0E9440000C945A000C940000DB
:10008000259A3D9820E090E031E086B1882311F078
:1000900028139327292F2295220F207E25B92FE799
:1000A00048E351E0215040405040E1F700C00000DB
:0800B000282FEBCFF894FFCFDD
:00000001FF
