:100000000C9434000C943E000C943E000C943E0082
:100010000C9440000C943E000C943E000C943E0066
:100020000C943E000C943E000C943E000C943E0058
:100030000C943E000C943E000C943E000C943E0048
:100040000C943E000C943E000C943E000C943E0038
:100050000C943E000C943E000C943E000C943E0028
:100060000C943E000C943E0011241FBECFEFD8E04C
:10007000DEBFCDBF0E9465000C9470000C940000A0
:100080001F920F920FB60F9211242F938F939F936D
:100090008FB78F778FBF319B0DC09BB180E48927CD
:1000A0008BB92FEF82E597E0215080409040E1F737
:1000B00000C000008FB780688FBF9F918F912F91F4
:1000C0000F900FBE0F901F9018953998569A8FB7C2
:1000D00080688FBF82E08093680080936C00FFCFC0
:0400E000F894FFCFC2
:00000001FF
