:100000000C9434000C943E000C943E000C943E0082
:100010000C9440000C943E000C943E000C943E0066
:100020000C943E000C943E000C943E000C943E0058
:100030000C943E000C943E000C943E000C943E0048
:100040000C943E000C943E000C943E000C943E0038
:100050000C943E000C943E000C943E000C943E0028
:100060000C943E000C943E0011241FBECFEFD8E04C
:10007000DEBFCDBF0E944B000C9461000C940000C9
:100080001F920F920FB60F9211245E9A0F900FBE1F
:100090000F901F9018953998419A569A8FB780689B
:1000A0008FBF82E08093680080936C005E982FEF92
:1000B00084E39CE0215080409040E1F700C00000C4
:0600C000F5CFF894FFCF1C
:00000001FF
