:100000000C9434000C9440000C943E000C943E0080
:100010000C943E000C943E000C943E000C943E0068
:100020000C943E000C943E000C943E000C943E0058
:100030000C943E000C943E000C943E000C943E0048
:100040000C943E000C943E000C943E000C943E0038
:100050000C943E000C943E000C943E000C943E0028
:100060000C943E000C943E0011241FBECFEFD8E04C
:10007000DEBFCDBF0E9463000C9470000C940000A2
:100080001F920F920FB60F9211242F938F939F936D
:100090008FB78F778FBF9BB180E489278BB92FEF04
:1000A00082E597E0215080409040E1F700C00000D9
:1000B0008FB780688FBF9F918F912F910F900FBE48
:1000C0000F901F9018955298569A8FB780688FBFDF
:1000D0008091690083608093690081E08DBBFFCFD0
:0400E000F894FFCFC2
:00000001FF
