:100000000C9434000C9440000C943E000C943E0080
:100010000C943E000C943E000C943E000C943E0068
:100020000C943E000C943E000C943E000C943E0058
:100030000C943E000C943E000C943E000C943E0048
:100040000C943E000C943E000C943E000C943E0038
:100050000C943E000C943E000C943E000C943E0028
:100060000C943E000C943E0011241FBECFEFD8E04C
:10007000DEBFCDBF0E944B000C9460000C940000CA
:100080001F920F920FB60F9211245E9A0F900FBE1F
:100090000F901F9018955298569A8FB780688FBF0F
:1000A00083E08093690081E08DBB5E982FEF89E645
:1000B00098E1215080409040E1F700C00000F5CF6A
:0400C000F894FFCFE2
:00000001FF
