:100000000C9434000C943E000C943E000C943E0082
:100010000C943E000C943E000C943E000C943E0068
:100020000C943E000C943E000C943E000C943E0058
:100030000C943E000C9440000C943E000C943E0046
:100040000C943E000C943E000C943E000C943E0038
:100050000C943E000C943E000C943E000C943E0028
:100060000C943E000C943E0011241FBECFEFD8E04C
:10007000DEBFCDBF0E9452000C9461000C940000C2
:100080001F920F920FB60F9211248F939F939BB1E3
:1000900080E489278BB99F918F910F900FBE0F90AD
:1000A0001F901895569A1092800083E080938100EB
:1000B0008FB780688FBF80916F00816080936F00E1
:0600C000FFCFF894FFCF12
:00000001FF
