:100000000C9434000C943E000C943E000C943E0082
:100010000C943E000C943E000C943E000C943E0068
:100020000C943E000C943E000C943E000C943E0058
:100030000C943E000C943E000C943E000C943E0048
:100040000C943E000C943E000C943E000C943E0038
:100050000C943E000C943E000C943E000C943E0028
:100060000C943E000C943E0011241FBECFEFD8E04C
:10007000DEBFCDBF0E9440000C945F000C940000D6
:10008000569A17BC83E884BD82E085BD80E68093E4
:100090007C0080E880937A0080917A00806480936D
:1000A0007A0080917A0084FFFCCF8091790087BD2F
:1000B0008FE19EE40197F1F700C00000EDCFF894C6
:0200C000FFCF70
:00000001FF
